{
  "contractName": "Bank",
  "abi": [
    {
      "inputs": [],
      "stateMutability": "nonpayable",
      "type": "constructor"
    },
    {
      "anonymous": false,
      "inputs": [
        {
          "indexed": false,
          "internalType": "uint256",
          "name": "_tag",
          "type": "uint256"
        },
        {
          "indexed": false,
          "internalType": "bytes",
          "name": "_data",
          "type": "bytes"
        }
      ],
      "name": "AppEvent",
      "type": "event"
    },
    {
      "anonymous": false,
      "inputs": [
        {
          "indexed": false,
          "internalType": "address",
          "name": "_recipient",
          "type": "address"
        },
        {
          "indexed": false,
          "internalType": "address",
          "name": "_token",
          "type": "address"
        },
        {
          "indexed": false,
          "internalType": "uint256",
          "name": "_amount",
          "type": "uint256"
        }
      ],
      "name": "Unlock",
      "type": "event"
    },
    {
      "inputs": [],
      "name": "nonce",
      "outputs": [
        {
          "internalType": "uint256",
          "name": "",
          "type": "uint256"
        }
      ],
      "stateMutability": "view",
      "type": "function",
      "constant": true
    },
    {
      "inputs": [],
      "name": "totalETH",
      "outputs": [
        {
          "internalType": "uint256",
          "name": "",
          "type": "uint256"
        }
      ],
      "stateMutability": "view",
      "type": "function",
      "constant": true
    },
    {
      "inputs": [
        {
          "internalType": "address",
          "name": "",
          "type": "address"
        }
      ],
      "name": "totalTokens",
      "outputs": [
        {
          "internalType": "uint256",
          "name": "",
          "type": "uint256"
        }
      ],
      "stateMutability": "view",
      "type": "function",
      "constant": true
    },
    {
      "inputs": [
        {
          "internalType": "bytes32",
          "name": "_recipient",
          "type": "bytes32"
        }
      ],
      "name": "sendETH",
      "outputs": [],
      "stateMutability": "payable",
      "type": "function",
      "payable": true
    },
    {
      "inputs": [
        {
          "internalType": "bytes32",
          "name": "_recipient",
          "type": "bytes32"
        },
        {
          "internalType": "address",
          "name": "_tokenAddr",
          "type": "address"
        },
        {
          "internalType": "uint256",
          "name": "_amount",
          "type": "uint256"
        }
      ],
      "name": "sendERC20",
      "outputs": [],
      "stateMutability": "nonpayable",
      "type": "function"
    },
    {
      "inputs": [
        {
          "internalType": "bytes",
          "name": "data",
          "type": "bytes"
        }
      ],
      "name": "submit",
      "outputs": [],
      "stateMutability": "nonpayable",
      "type": "function"
    }
  ],
  "bytecode": "0x608060405234801561001057600080fd5b5060008081905550610f70806100276000396000f3fe6080604052600436106100555760003560e01c80630846691f1461005a57806336bdee7414610088578063affed0e0146100b3578063cb9199a2146100de578063da795ea314610143578063ef7fa71b146101a8575b600080fd5b6100866004803603602081101561007057600080fd5b810190808035906020019092919050505061022e565b005b34801561009457600080fd5b5061009d610386565b6040518082815260200191505060405180910390f35b3480156100bf57600080fd5b506100c861038c565b6040518082815260200191505060405180910390f35b3480156100ea57600080fd5b5061012d6004803603602081101561010157600080fd5b81019080803573ffffffffffffffffffffffffffffffffffffffff169060200190929190505050610392565b6040518082815260200191505060405180910390f35b34801561014f57600080fd5b506101a66004803603606081101561016657600080fd5b8101908080359060200190929190803573ffffffffffffffffffffffffffffffffffffffff169060200190929190803590602001909291905050506103aa565b005b3480156101b457600080fd5b5061022c600480360360208110156101cb57600080fd5b81019080803590602001906401000000008111156101e857600080fd5b8201836020820111156101fa57600080fd5b8035906020019184600183028401116401000000008311171561021c57600080fd5b909192939192939050505061066e565b005b60003411610287576040517f08c379a0000000000000000000000000000000000000000000000000000000008152600401808060200182810382526025815260200180610e956025913960400191505060405180910390fd5b61029c346001546106ce90919063ffffffff16565b6001819055506102b860016000546106ce90919063ffffffff16565b60008190555060606102d03383600034600054610756565b90507f6bafbf13bfcea5e4ce5cd1a03b246069acefcd0bada5ef4e1a059b37a08c23996000600181111561030057fe5b826040518083815260200180602001828103825283818151815260200191508051906020019080838360005b8381101561034757808201518184015260208101905061032c565b50505050905090810190601f1680156103745780820380516001836020036101000a031916815260200191505b50935050505060405180910390a15050565b60015481565b60005481565b60026020528060005260406000206000915090505481565b8173ffffffffffffffffffffffffffffffffffffffff166323b872dd3330846040518463ffffffff1660e01b8152600401808473ffffffffffffffffffffffffffffffffffffffff1673ffffffffffffffffffffffffffffffffffffffff1681526020018373ffffffffffffffffffffffffffffffffffffffff1673ffffffffffffffffffffffffffffffffffffffff1681526020018281526020019350505050602060405180830381600087803b15801561046557600080fd5b505af1158015610479573d6000803e3d6000fd5b505050506040513d602081101561048f57600080fd5b81019080805190602001909291905050506104f5576040517f08c379a0000000000000000000000000000000000000000000000000000000008152600401808060200182810382526044815260200180610eba6044913960600191505060405180910390fd5b61054781600260008573ffffffffffffffffffffffffffffffffffffffff1673ffffffffffffffffffffffffffffffffffffffff168152602001908152602001600020546106ce90919063ffffffff16565b600260008473ffffffffffffffffffffffffffffffffffffffff1673ffffffffffffffffffffffffffffffffffffffff168152602001908152602001600020819055506105a060016000546106ce90919063ffffffff16565b60008190555060606105b733858585600054610756565b90507f6bafbf13bfcea5e4ce5cd1a03b246069acefcd0bada5ef4e1a059b37a08c23996001808111156105e657fe5b826040518083815260200180602001828103825283818151815260200191508051906020019080838360005b8381101561062d578082015181840152602081019050610612565b50505050905090810190601f16801561065a5780820380516001836020036101000a031916815260200191505b50935050505060405180910390a150505050565b6000809050600080905060008090506000600190506000600181111561069057fe5b8414156106a6576106a183826107fb565b6106c6565b6001808111156106b257fe5b8414156106c5576106c48383836109d1565b5b5b505050505050565b60008082840190508381101561074c576040517f08c379a000000000000000000000000000000000000000000000000000000000815260040180806020018281038252601b8152602001807f536166654d6174683a206164646974696f6e206f766572666c6f77000000000081525060200191505060405180910390fd5b8091505092915050565b60608585858585604051602001808673ffffffffffffffffffffffffffffffffffffffff1673ffffffffffffffffffffffffffffffffffffffff1681526020018581526020018473ffffffffffffffffffffffffffffffffffffffff1673ffffffffffffffffffffffffffffffffffffffff16815260200183815260200182815260200195505050505050604051602081830303815290604052905095945050505050565b60008111610871576040517f08c379a000000000000000000000000000000000000000000000000000000000815260040180806020018281038252601d8152602001807f4d75737420756e6c6f636b206120706f73697469766520616d6f756e7400000081525060200191505060405180910390fd5b80600154116108cb576040517f08c379a000000000000000000000000000000000000000000000000000000000815260040180806020018281038252603d815260200180610efe603d913960400191505060405180910390fd5b6108e081600154610d4b90919063ffffffff16565b6001819055508173ffffffffffffffffffffffffffffffffffffffff166108fc829081150290604051600060405180830381858888f1935050505015801561092c573d6000803e3d6000fd5b507fc1c90b8e0705b212262c0dbd7580efe1862c2f185bf96899226f7596beb2db0982600083604051808473ffffffffffffffffffffffffffffffffffffffff1673ffffffffffffffffffffffffffffffffffffffff1681526020018373ffffffffffffffffffffffffffffffffffffffff1673ffffffffffffffffffffffffffffffffffffffff168152602001828152602001935050505060405180910390a15050565b60008111610a47576040517f08c379a000000000000000000000000000000000000000000000000000000000815260040180806020018281038252601d8152602001807f4d75737420756e6c6f636b206120706f73697469766520616d6f756e7400000081525060200191505060405180910390fd5b80600260008473ffffffffffffffffffffffffffffffffffffffff1673ffffffffffffffffffffffffffffffffffffffff1681526020019081526020016000205411610ade576040517f08c379a000000000000000000000000000000000000000000000000000000000815260040180806020018281038252603f815260200180610e56603f913960400191505060405180910390fd5b610b3081600260008573ffffffffffffffffffffffffffffffffffffffff1673ffffffffffffffffffffffffffffffffffffffff16815260200190815260200160002054610d4b90919063ffffffff16565b600260008473ffffffffffffffffffffffffffffffffffffffff1673ffffffffffffffffffffffffffffffffffffffff168152602001908152602001600020819055508173ffffffffffffffffffffffffffffffffffffffff1663a9059cbb84836040518363ffffffff1660e01b8152600401808373ffffffffffffffffffffffffffffffffffffffff1673ffffffffffffffffffffffffffffffffffffffff16815260200182815260200192505050602060405180830381600087803b158015610bfa57600080fd5b505af1158015610c0e573d6000803e3d6000fd5b505050506040513d6020811015610c2457600080fd5b8101908080519060200190929190505050610ca7576040517f08c379a000000000000000000000000000000000000000000000000000000000815260040180806020018281038252601b8152602001807f455243323020746f6b656e207472616e73666572206661696c6564000000000081525060200191505060405180910390fd5b7fc1c90b8e0705b212262c0dbd7580efe1862c2f185bf96899226f7596beb2db09838383604051808473ffffffffffffffffffffffffffffffffffffffff1673ffffffffffffffffffffffffffffffffffffffff1681526020018373ffffffffffffffffffffffffffffffffffffffff1673ffffffffffffffffffffffffffffffffffffffff168152602001828152602001935050505060405180910390a1505050565b6000610d8d83836040518060400160405280601e81526020017f536166654d6174683a207375627472616374696f6e206f766572666c6f770000815250610d95565b905092915050565b6000838311158290610e42576040517f08c379a00000000000000000000000000000000000000000000000000000000081526004018080602001828103825283818151815260200191508051906020019080838360005b83811015610e07578082015181840152602081019050610dec565b50505050905090810190601f168015610e345780820380516001836020036101000a031916815260200191505b509250505060405180910390fd5b506000838503905080915050939250505056fe455243323020746f6b656e2062616c616e63657320696e73756666696369656e7420746f2066756c66696c6c2074686520756e6c6f636b207265717565737456616c7565206f66207472616e73616374696f6e206d75737420626520706f736974697665436f6e747261637420746f6b656e20616c6c6f77616e63657320696e73756666696369656e7420746f20636f6d706c6574652074686973206c6f636b207265717565737445544820746f6b656e2062616c616e63657320696e73756666696369656e7420746f2066756c66696c6c2074686520756e6c6f636b2072657175657374a26469706673582212204519d164333fca764d23926d72c82ab92dd21652da9c5c8c0c568a068295b15a64736f6c63430006020033",
  "source": "// SPDX-License-Identifier: MIT\npragma solidity >=0.6.2;\n\nimport \"@openzeppelin/contracts/math/SafeMath.sol\";\nimport \"@openzeppelin/contracts/token/ERC20/IERC20.sol\";\n\ncontract Bank {\n    using SafeMath for uint256;\n\n    uint256 public nonce;\n    uint256 public totalETH;\n    mapping(address => uint256) public totalTokens;\n\n\n    enum AppEventTags { SendETH, SendERC20 }\n\n    event AppEvent(uint _tag, bytes _data);\n    event Unlock(address _recipient, address _token, uint256 _amount);\n\n    constructor() public {\n        nonce = 0;\n    }\n\n    function sendETH(\n        bytes32 _recipient\n    )\n        public\n        payable\n    {\n        require(msg.value > 0, \"Value of transaction must be positive\");\n\n        // Increment locked Ethereum counter by this amount\n        totalETH = totalETH.add(msg.value);\n        // Increment global nonce\n        nonce = nonce.add(1);\n\n        bytes memory data = encodeSendData(msg.sender, _recipient, address(0), msg.value, nonce);\n        emit AppEvent(uint(AppEventTags.SendETH), data);\n    }\n\n    function sendERC20(\n        bytes32 _recipient,\n        address _tokenAddr,\n        uint256 _amount\n    )\n        public\n    {\n       require(\n            IERC20(_tokenAddr).transferFrom(msg.sender, address(this), _amount),\n            \"Contract token allowances insufficient to complete this lock request\"\n        );\n\n        // Increment locked ERC20 token counter by this amount\n        totalTokens[_tokenAddr] = totalTokens[_tokenAddr].add(_amount);\n        // Increment global nonce\n        nonce = nonce.add(1);\n\n        bytes memory data = encodeSendData(msg.sender, _recipient, _tokenAddr,_amount, nonce);\n        emit AppEvent(uint(AppEventTags.SendERC20), data);\n    }\n\n    function encodeSendData(\n        address _sender,\n        bytes32 _recipient,\n        address _tokenAddr,\n        uint256 _amount,\n        uint256 _nonce\n    )\n        internal\n        pure\n        returns(bytes memory)\n    {\n        return abi.encode(_sender, _recipient, _tokenAddr, _amount, _nonce);\n    }\n\n    function submit(bytes calldata data)\n        external\n    {\n        // TODO: decode bytes into (message, signature)\n        // require that signature is from operator\n\n        // TODO: decode message bytes into (tag, recipient, amount) or (tag, recipient, token, amount)\n         uint256 tag = 0;                        // placeholder\n         address payable recipient = address(0); // placeholder\n         address token = address(0);             // placeholder\n         uint256 amount = 1;                     // placeholder\n\n        if(tag == uint(AppEventTags.SendETH)) {\n            unlockETH(recipient, amount);\n        } else if(tag == uint(AppEventTags.SendERC20)) {\n            unlockERC20(recipient, token, amount);\n        }\n    }\n\n    function unlockETH(\n        address payable _recipient,\n        uint256 _amount\n    )\n        internal\n    {\n        require(_amount > 0, \"Must unlock a positive amount\");\n        require(totalETH > _amount, \"ETH token balances insufficient to fulfill the unlock request\");\n\n        totalETH = totalETH.sub(_amount);\n        _recipient.transfer(_amount);\n        emit Unlock(_recipient, address(0), _amount);\n    }\n\n    function unlockERC20(\n        address _recipient,\n        address _token,\n        uint256 _amount\n    )\n        internal\n    {\n        require(_amount > 0, \"Must unlock a positive amount\");\n        require(totalTokens[_token] > _amount, \"ERC20 token balances insufficient to fulfill the unlock request\");\n\n        totalTokens[_token] = totalTokens[_token].sub(_amount);\n        require(IERC20(_token).transfer(_recipient, _amount), \"ERC20 token transfer failed\");\n        emit Unlock(_recipient, _token, _amount);\n    }\n}\n",
  "sourcePath": "/Users/denali/go/src/github.com/snowfork/polkadot-ethereum/ethereum/contracts/Bank.sol",
  "compiler": {
    "name": "solc",
    "version": "0.6.2+commit.bacdbe57.Emscripten.clang"
  },
  "schemaVersion": "3.1.0",
  "updatedAt": "2020-08-15T10:58:25.255Z",
  "networkType": "ethereum",
  "devdoc": {
    "methods": {}
  },
  "userdoc": {
    "methods": {}
  }
}