{
  "contractName": "Bridge",
  "abi": [
    {
      "inputs": [
        {
          "internalType": "address",
          "name": "_verfierAddr",
          "type": "address"
        },
        {
          "internalType": "address[]",
          "name": "_apps",
          "type": "address[]"
        }
      ],
      "stateMutability": "nonpayable",
      "type": "constructor"
    },
    {
      "inputs": [
        {
          "internalType": "address",
          "name": "",
          "type": "address"
        }
      ],
      "name": "applications",
      "outputs": [
        {
          "internalType": "bool",
          "name": "",
          "type": "bool"
        }
      ],
      "stateMutability": "view",
      "type": "function"
    },
    {
      "inputs": [
        {
          "internalType": "bytes32",
          "name": "",
          "type": "bytes32"
        }
      ],
      "name": "eventHashes",
      "outputs": [
        {
          "internalType": "bool",
          "name": "",
          "type": "bool"
        }
      ],
      "stateMutability": "view",
      "type": "function"
    },
    {
      "inputs": [
        {
          "internalType": "address",
          "name": "_appId",
          "type": "address"
        },
        {
          "internalType": "bytes",
          "name": "_message",
          "type": "bytes"
        }
      ],
      "name": "submit",
      "outputs": [],
      "stateMutability": "nonpayable",
      "type": "function"
    }
  ],
  "bytecode": "0x60806040527fc5d2460186f7233c927e7db2dcc703c0e500b653ca82273b7bfad8045d85a47060001b60005534801561003757600080fd5b50604051610ae6380380610ae68339818101604052604081101561005a57600080fd5b81019080805190602001909291908051604051939291908464010000000082111561008457600080fd5b8382019150602082018581111561009a57600080fd5b82518660208202830111640100000000821117156100b757600080fd5b8083526020830192505050908051906020019060200280838360005b838110156100ee5780820151818401526020810190506100d3565b5050505090500160405250505081600360006101000a81548173ffffffffffffffffffffffffffffffffffffffff021916908373ffffffffffffffffffffffffffffffffffffffff16021790555060008090505b81518110156101eb5761016d82828151811061015a57fe5b60200260200101516101f360201b60201c565b156101de5760016002600084848151811061018457fe5b602002602001015173ffffffffffffffffffffffffffffffffffffffff1673ffffffffffffffffffffffffffffffffffffffff16815260200190815260200160002060006101000a81548160ff0219169083151502179055505b8080600101915050610142565b50505061035f565b6000600260008373ffffffffffffffffffffffffffffffffffffffff1673ffffffffffffffffffffffffffffffffffffffff16815260200190815260200160002060009054906101000a900460ff1615610298576040517f08c379a0000000000000000000000000000000000000000000000000000000008152600401808060200182810382526021815260200180610a5b6021913960400191505060405180910390fd5b6000823f90506000801b8114156102fa576040517f08c379a0000000000000000000000000000000000000000000000000000000008152600401808060200182810382526032815260200180610a7c6032913960400191505060405180910390fd5b600054811415610355576040517f08c379a0000000000000000000000000000000000000000000000000000000008152600401808060200182810382526038815260200180610aae6038913960400191505060405180910390fd5b6001915050919050565b6106ed8061036e6000396000f3fe608060405234801561001057600080fd5b50600436106100415760003560e01c806376846edd146100465780637c3bf42d146101215780639327b5781461017d575b600080fd5b61011f6004803603604081101561005c57600080fd5b81019080803573ffffffffffffffffffffffffffffffffffffffff1690602001909291908035906020019064010000000081111561009957600080fd5b8201836020820111156100ab57600080fd5b803590602001918460018302840111640100000000831117156100cd57600080fd5b91908080601f016020809104026020016040519081016040528093929190818152602001838380828437600081840152601f19601f8201169050808301925050505050505091929192905050506101c3565b005b6101636004803603602081101561013757600080fd5b81019080803573ffffffffffffffffffffffffffffffffffffffff169060200190929190505050610522565b604051808215151515815260200191505060405180910390f35b6101a96004803603602081101561019357600080fd5b8101908080359060200190929190505050610542565b604051808215151515815260200191505060405180910390f35b600360009054906101000a900473ffffffffffffffffffffffffffffffffffffffff1673ffffffffffffffffffffffffffffffffffffffff1663b674e3e46040518163ffffffff1660e01b815260040160206040518083038186803b15801561022b57600080fd5b505afa15801561023f573d6000803e3d6000fd5b505050506040513d602081101561025557600080fd5b81019080805190602001909291905050506102bb576040517f08c379a00000000000000000000000000000000000000000000000000000000081526004018080602001828103825260258152602001806106936025913960400191505060405180910390fd5b600260008373ffffffffffffffffffffffffffffffffffffffff1673ffffffffffffffffffffffffffffffffffffffff16815260200190815260200160002060009054906101000a900460ff1661035d576040517f08c379a000000000000000000000000000000000000000000000000000000000815260040180806020018281038252603b815260200180610658603b913960400191505060405180910390fd5b6000818051906020012090506001600082815260200190815260200160002060009054906101000a900460ff16156103fd576040517f08c379a00000000000000000000000000000000000000000000000000000000081526004018080602001828103825260208152602001807f4576656e742068617320616c7265616479206265656e2070726f63657373656481525060200191505060405180910390fd5b600180600083815260200190815260200160002060006101000a81548160ff02191690831515021790555060606104446000600f855103856105629092919063ffffffff16565b905060008490508073ffffffffffffffffffffffffffffffffffffffff1663bf48bcb6836040518263ffffffff1660e01b81526004018080602001828103825283818151815260200191508051906020019080838360005b838110156104b757808201518184015260208101905061049c565b50505050905090810190601f1680156104e45780820380516001836020036101000a031916815260200191505b5092505050600060405180830381600087803b15801561050357600080fd5b505af1158015610517573d6000803e3d6000fd5b505050505050505050565b60026020528060005260406000206000915054906101000a900460ff1681565b60016020528060005260406000206000915054906101000a900460ff1681565b6060818301845110156105dd576040517f08c379a00000000000000000000000000000000000000000000000000000000081526004018080602001828103825260128152602001807f52656164206f7574206f6620626f756e6473000000000000000000000000000081525060200191505060405180910390fd5b60608215600081146105fa5760405191506020820160405261064b565b6040519150601f8416801560200281840101858101878315602002848b0101015b81831015610638578051835260208301925060208101905061061b565b50868552601f19601f8301166040525050505b5080915050939250505056fe417070204944206e6f7420666f756e642e204f6e6c792072656769737465726564206170706c69636174696f6e2061726520737570706f727465645478206f726967696e206d7573742062652074686520427269646765206f70657261746f72a2646970667358221220c956ce26619ac77aa0e36227cfec0f778c32c6f13e55fe90825568ef3519bf2264736f6c634300060200334170706c69636174696f6e20697320616c7265616479207265676973746572656454686572652773206e6f206163636f756e7420666f7220746869732061646472657373206f6e20746865206e6574776f726b4f6e6c7920636f6e7472616374206163636f756e74732063616e2062652072656769737465726564206173206170706c69636174696f6e73",
  "source": "// SPDX-License-Identifier: MIT\npragma solidity >=0.6.2;\n\nimport \"./Decoder.sol\";\nimport \"./Application.sol\";\nimport \"./Verifier.sol\";\n\ncontract Bridge {\n    using Decoder for bytes;\n\n    // 0xc5d2460186f7233c927e7db2dcc703c0e500b653ca82273b7bfad8045d85a470 is returned for accounts without code\n    bytes32 NON_CONTRACT_ACCOUNT_HASH = 0xc5d2460186f7233c927e7db2dcc703c0e500b653ca82273b7bfad8045d85a470;\n\n    mapping(bytes32 => bool) public eventHashes;\n    mapping(address => bool) public applications;\n    Verifier verifier;\n\n    constructor(address _verfierAddr, address[] memory _apps) public {\n        verifier = Verifier(_verfierAddr);\n        for(uint256 i = 0; i < _apps.length; i++) {\n            if(verifyApp(_apps[i])) {\n                applications[_apps[i]] = true;\n            }\n        }\n    }\n\n    /**\n     * @dev routes the message to the specified application ID after verifying the operator's signature\n     * @param _appId address _appId\n     * @param _message bytes _message contains information to be passed to the application\n     */\n    function submit(address _appId, bytes memory _message)\n        public\n    {\n        require(verifier.verifyOperator(), \"Tx origin must be the Bridge operator\");\n        require(applications[_appId], \"App ID not found. Only registered application are supported\");\n\n        bytes32 hashed = keccak256(_message);\n        require(!eventHashes[hashed], \"Event has already been processed\");\n        eventHashes[hashed] = true;\n\n        // Slice payload, dropping the 14-byte verification data\n        bytes memory payload = _message.slice(0, _message.length-15);\n        Application app = Application(_appId);\n        app.handle(payload);\n    }\n\n    /**\n     * @dev verifies new applications\n     * @param _appID address _appID is the application's contract address to be verified\n     */\n    function verifyApp(address _appID)\n        internal\n        view\n        returns(bool)\n    {\n        require(!applications[_appID], \"Application is already registered\");\n\n        bytes32 codehash;\n        assembly { codehash := extcodehash(_appID) }\n        require(codehash != 0x0, \"There's no account for this address on the network\");\n        require(codehash != NON_CONTRACT_ACCOUNT_HASH, \"Only contract accounts can be registered as applications\");\n\n        return true;\n    }\n}\n",
  "sourcePath": "/Users/denali/go/src/github.com/snowfork/polkadot-ethereum/ethereum/contracts/Bridge.sol",
  "compiler": {
    "name": "solc",
    "version": "0.6.2+commit.bacdbe57.Emscripten.clang"
  },
  "schemaVersion": "3.1.0",
  "updatedAt": "2020-09-21T21:24:44.085Z",
  "devdoc": {
    "methods": {
      "submit(address,bytes)": {
        "details": "routes the message to the specified application ID after verifying the operator's signature",
        "params": {
          "_appId": "address _appId",
          "_message": "bytes _message contains information to be passed to the application"
        }
      }
    }
  },
  "userdoc": {
    "methods": {}
  }
}