{
  "contractName": "ERC20App",
  "abi": [
    {
      "anonymous": false,
      "inputs": [
        {
          "indexed": false,
          "internalType": "address",
          "name": "_sender",
          "type": "address"
        },
        {
          "indexed": false,
          "internalType": "bytes32",
          "name": "_recipient",
          "type": "bytes32"
        },
        {
          "indexed": false,
          "internalType": "address",
          "name": "_token",
          "type": "address"
        },
        {
          "indexed": false,
          "internalType": "uint256",
          "name": "_amount",
          "type": "uint256"
        }
      ],
      "name": "AppTransfer",
      "type": "event"
    },
    {
      "anonymous": false,
      "inputs": [
        {
          "indexed": false,
          "internalType": "bytes",
          "name": "_sender",
          "type": "bytes"
        },
        {
          "indexed": false,
          "internalType": "address",
          "name": "_recipient",
          "type": "address"
        },
        {
          "indexed": false,
          "internalType": "address",
          "name": "_token",
          "type": "address"
        },
        {
          "indexed": false,
          "internalType": "uint256",
          "name": "_amount",
          "type": "uint256"
        }
      ],
      "name": "Unlock",
      "type": "event"
    },
    {
      "inputs": [
        {
          "internalType": "address",
          "name": "",
          "type": "address"
        }
      ],
      "name": "totalTokens",
      "outputs": [
        {
          "internalType": "uint256",
          "name": "",
          "type": "uint256"
        }
      ],
      "stateMutability": "view",
      "type": "function"
    },
    {
      "inputs": [
        {
          "internalType": "bytes32",
          "name": "_recipient",
          "type": "bytes32"
        },
        {
          "internalType": "address",
          "name": "_tokenAddr",
          "type": "address"
        },
        {
          "internalType": "uint256",
          "name": "_amount",
          "type": "uint256"
        }
      ],
      "name": "sendERC20",
      "outputs": [],
      "stateMutability": "nonpayable",
      "type": "function"
    },
    {
      "inputs": [
        {
          "internalType": "bytes",
          "name": "_data",
          "type": "bytes"
        }
      ],
      "name": "handle",
      "outputs": [],
      "stateMutability": "nonpayable",
      "type": "function"
    }
  ],
  "bytecode": "0x608060405234801561001057600080fd5b50610e07806100206000396000f3fe608060405234801561001057600080fd5b50600436106100415760003560e01c8063bf48bcb614610046578063cb9199a214610101578063da795ea314610159575b600080fd5b6100ff6004803603602081101561005c57600080fd5b810190808035906020019064010000000081111561007957600080fd5b82018360208201111561008b57600080fd5b803590602001918460018302840111640100000000831117156100ad57600080fd5b91908080601f016020809104026020016040519081016040528093929190818152602001838380828437600081840152601f19601f8201169050808301925050505050505091929192905050506101b1565b005b6101436004803603602081101561011757600080fd5b81019080803573ffffffffffffffffffffffffffffffffffffffff1690602001909291905050506104ad565b6040518082815260200191505060405180910390f35b6101af6004803603606081101561016f57600080fd5b8101908080359060200190929190803573ffffffffffffffffffffffffffffffffffffffff169060200190929190803590602001909291905050506104c5565b005b606867ffffffffffffffff1681511015610233576040517f08c379a000000000000000000000000000000000000000000000000000000000815260040180806020018281038252600f8152602001807f496e76616c6964205061796c6f6164000000000000000000000000000000000081525060200191505060405180910390fd5b606061024c600060208461074f9092919063ffffffff16565b9050600061026460208461084490919063ffffffff16565b9050600061027c60348561084490919063ffffffff16565b90506060610297604860208761074f9092919063ffffffff16565b905060008173__Decoder_______________________________636d78dc9c90916040518263ffffffff1660e01b81526004018080602001828103825283818151815260200191508051906020019080838360005b838110156103075780820151818401526020810190506102ec565b50505050905090810190601f1680156103345780820380516001836020036101000a031916815260200191505b509250505060206040518083038186803b15801561035157600080fd5b505af4158015610365573d6000803e3d6000fd5b505050506040513d602081101561037b57600080fd5b810190808051906020019092919050505090506103998484836108e4565b7ffa064c20e786f9c8eea8b47bca040106b30ef2db99f72ab86f16d0377531c0228585858460405180806020018573ffffffffffffffffffffffffffffffffffffffff1673ffffffffffffffffffffffffffffffffffffffff1681526020018473ffffffffffffffffffffffffffffffffffffffff1673ffffffffffffffffffffffffffffffffffffffff168152602001838152602001828103825286818151815260200191508051906020019080838360005b8381101561046857808201518184015260208101905061044d565b50505050905090810190601f1680156104955780820380516001836020036101000a031916815260200191505b509550505050505060405180910390a1505050505050565b60006020528060005260406000206000915090505481565b8173ffffffffffffffffffffffffffffffffffffffff166323b872dd3330846040518463ffffffff1660e01b8152600401808473ffffffffffffffffffffffffffffffffffffffff1673ffffffffffffffffffffffffffffffffffffffff1681526020018373ffffffffffffffffffffffffffffffffffffffff1673ffffffffffffffffffffffffffffffffffffffff1681526020018281526020019350505050602060405180830381600087803b15801561058057600080fd5b505af1158015610594573d6000803e3d6000fd5b505050506040513d60208110156105aa57600080fd5b8101908080519060200190929190505050610610576040517f08c379a0000000000000000000000000000000000000000000000000000000008152600401808060200182810382526044815260200180610d8e6044913960600191505060405180910390fd5b610661816000808573ffffffffffffffffffffffffffffffffffffffff1673ffffffffffffffffffffffffffffffffffffffff16815260200190815260200160002054610bbc90919063ffffffff16565b6000808473ffffffffffffffffffffffffffffffffffffffff1673ffffffffffffffffffffffffffffffffffffffff168152602001908152602001600020819055507fbe9215fdb423dfc80cce917dc48fa52d3e247875e3d7cea229d3f28661ad0f6033848484604051808573ffffffffffffffffffffffffffffffffffffffff1673ffffffffffffffffffffffffffffffffffffffff1681526020018481526020018373ffffffffffffffffffffffffffffffffffffffff1673ffffffffffffffffffffffffffffffffffffffff16815260200182815260200194505050505060405180910390a1505050565b6060818301845110156107ca576040517f08c379a00000000000000000000000000000000000000000000000000000000081526004018080602001828103825260128152602001807f52656164206f7574206f6620626f756e6473000000000000000000000000000081525060200191505060405180910390fd5b60608215600081146107e757604051915060208201604052610838565b6040519150601f8416801560200281840101858101878315602002848b0101015b818310156108255780518352602083019250602081019050610808565b50868552601f19601f8301166040525050505b50809150509392505050565b600060148201835110156108c0576040517f08c379a00000000000000000000000000000000000000000000000000000000081526004018080602001828103825260128152602001807f52656164206f7574206f6620626f756e6473000000000000000000000000000081525060200191505060405180910390fd5b60006c01000000000000000000000000836020860101510490508091505092915050565b6000811161095a576040517f08c379a000000000000000000000000000000000000000000000000000000000815260040180806020018281038252601d8152602001807f4d75737420756e6c6f636b206120706f73697469766520616d6f756e7400000081525060200191505060405180910390fd5b806000808473ffffffffffffffffffffffffffffffffffffffff1673ffffffffffffffffffffffffffffffffffffffff16815260200190815260200160002054116109f0576040517f08c379a000000000000000000000000000000000000000000000000000000000815260040180806020018281038252603f815260200180610d4f603f913960400191505060405180910390fd5b610a41816000808573ffffffffffffffffffffffffffffffffffffffff1673ffffffffffffffffffffffffffffffffffffffff16815260200190815260200160002054610c4490919063ffffffff16565b6000808473ffffffffffffffffffffffffffffffffffffffff1673ffffffffffffffffffffffffffffffffffffffff168152602001908152602001600020819055508173ffffffffffffffffffffffffffffffffffffffff1663a9059cbb84836040518363ffffffff1660e01b8152600401808373ffffffffffffffffffffffffffffffffffffffff1673ffffffffffffffffffffffffffffffffffffffff16815260200182815260200192505050602060405180830381600087803b158015610b0a57600080fd5b505af1158015610b1e573d6000803e3d6000fd5b505050506040513d6020811015610b3457600080fd5b8101908080519060200190929190505050610bb7576040517f08c379a000000000000000000000000000000000000000000000000000000000815260040180806020018281038252601b8152602001807f455243323020746f6b656e207472616e73666572206661696c6564000000000081525060200191505060405180910390fd5b505050565b600080828401905083811015610c3a576040517f08c379a000000000000000000000000000000000000000000000000000000000815260040180806020018281038252601b8152602001807f536166654d6174683a206164646974696f6e206f766572666c6f77000000000081525060200191505060405180910390fd5b8091505092915050565b6000610c8683836040518060400160405280601e81526020017f536166654d6174683a207375627472616374696f6e206f766572666c6f770000815250610c8e565b905092915050565b6000838311158290610d3b576040517f08c379a00000000000000000000000000000000000000000000000000000000081526004018080602001828103825283818151815260200191508051906020019080838360005b83811015610d00578082015181840152602081019050610ce5565b50505050905090810190601f168015610d2d5780820380516001836020036101000a031916815260200191505b509250505060405180910390fd5b506000838503905080915050939250505056fe455243323020746f6b656e2062616c616e63657320696e73756666696369656e7420746f2066756c66696c6c2074686520756e6c6f636b2072657175657374436f6e747261637420746f6b656e20616c6c6f77616e63657320696e73756666696369656e7420746f20636f6d706c6574652074686973206c6f636b2072657175657374a26469706673582212205d5f119f597c7dff73ff1298f23e210cb4bcb1c694e9f8ee047f632bef78665964736f6c63430006020033",
  "source": "// SPDX-License-Identifier: MIT\npragma solidity >=0.6.2;\n\nimport \"@openzeppelin/contracts/math/SafeMath.sol\";\nimport \"@openzeppelin/contracts/token/ERC20/IERC20.sol\";\nimport \"./Decoder.sol\";\nimport \"./Application.sol\";\n\ncontract ERC20App is Application {\n    using SafeMath for uint256;\n    using Decoder for bytes;\n\n    uint64 constant PAYLOAD_LENGTH = 104;\n\n    mapping(address => uint256) public totalTokens;\n\n    event AppTransfer(address _sender, bytes32 _recipient, address _token, uint256 _amount);\n    event Unlock(bytes _sender, address _recipient, address _token, uint256 _amount);\n\n    function sendERC20(bytes32 _recipient, address _tokenAddr, uint256 _amount)\n        public\n    {\n       require(\n            IERC20(_tokenAddr).transferFrom(msg.sender, address(this), _amount),\n            \"Contract token allowances insufficient to complete this lock request\"\n        );\n\n        // Increment locked ERC20 token counter by this amount\n        totalTokens[_tokenAddr] = totalTokens[_tokenAddr].add(_amount);\n\n        emit AppTransfer(msg.sender, _recipient, _tokenAddr, _amount);\n    }\n\n    function handle(bytes memory _data)\n        public\n        override\n    {\n        require(_data.length >= PAYLOAD_LENGTH, \"Invalid Payload\");\n\n        // Decode sender bytes\n        bytes memory sender = _data.slice(0, 32);\n        // Decode recipient address\n        address recipient = _data.sliceAddress(32);\n        // Decode token address\n        address tokenAddr = _data.sliceAddress(32 + 20);\n        // Decode amount int256\n        bytes memory amountBytes = _data.slice(32 + 40, 32);\n\n        uint256 amount = amountBytes.decodeUint256();\n\n        sendTokens(recipient, tokenAddr, amount);\n        emit Unlock(sender, recipient, tokenAddr, amount);\n    }\n\n    function sendTokens(address _recipient, address _token, uint256 _amount)\n        internal\n    {\n        require(_amount > 0, \"Must unlock a positive amount\");\n        require(totalTokens[_token] > _amount, \"ERC20 token balances insufficient to fulfill the unlock request\");\n\n        totalTokens[_token] = totalTokens[_token].sub(_amount);\n        require(IERC20(_token).transfer(_recipient, _amount), \"ERC20 token transfer failed\");\n    }\n}\n",
  "sourcePath": "/Users/denali/go/src/github.com/snowfork/polkadot-ethereum/ethereum/contracts/ERC20App.sol",
  "compiler": {
    "name": "solc",
    "version": "0.6.2+commit.bacdbe57.Emscripten.clang"
  },
  "schemaVersion": "3.1.0",
  "updatedAt": "2020-09-21T21:24:44.095Z",
  "devdoc": {
    "methods": {}
  },
  "userdoc": {
    "methods": {}
  }
}