{
  "contractName": "ERC20App",
  "abi": [
    {
      "inputs": [],
      "stateMutability": "nonpayable",
      "type": "constructor"
    },
    {
      "anonymous": false,
      "inputs": [
        {
          "indexed": false,
          "internalType": "address",
          "name": "_sender",
          "type": "address"
        },
        {
          "indexed": false,
          "internalType": "bytes32",
          "name": "_recipient",
          "type": "bytes32"
        },
        {
          "indexed": false,
          "internalType": "address",
          "name": "_token",
          "type": "address"
        },
        {
          "indexed": false,
          "internalType": "uint256",
          "name": "_amount",
          "type": "uint256"
        }
      ],
      "name": "Transfer",
      "type": "event"
    },
    {
      "anonymous": false,
      "inputs": [
        {
          "indexed": false,
          "internalType": "bytes",
          "name": "_sender",
          "type": "bytes"
        },
        {
          "indexed": false,
          "internalType": "address",
          "name": "_recipient",
          "type": "address"
        },
        {
          "indexed": false,
          "internalType": "address",
          "name": "_token",
          "type": "address"
        },
        {
          "indexed": false,
          "internalType": "uint256",
          "name": "_amount",
          "type": "uint256"
        }
      ],
      "name": "Unlock",
      "type": "event"
    },
    {
      "inputs": [],
      "name": "nonce",
      "outputs": [
        {
          "internalType": "uint256",
          "name": "",
          "type": "uint256"
        }
      ],
      "stateMutability": "view",
      "type": "function"
    },
    {
      "inputs": [
        {
          "internalType": "address",
          "name": "",
          "type": "address"
        }
      ],
      "name": "totalTokens",
      "outputs": [
        {
          "internalType": "uint256",
          "name": "",
          "type": "uint256"
        }
      ],
      "stateMutability": "view",
      "type": "function"
    },
    {
      "inputs": [
        {
          "internalType": "bytes32",
          "name": "_recipient",
          "type": "bytes32"
        },
        {
          "internalType": "address",
          "name": "_tokenAddr",
          "type": "address"
        },
        {
          "internalType": "uint256",
          "name": "_amount",
          "type": "uint256"
        }
      ],
      "name": "sendERC20",
      "outputs": [],
      "stateMutability": "nonpayable",
      "type": "function"
    },
    {
      "inputs": [
        {
          "internalType": "bytes",
          "name": "_data",
          "type": "bytes"
        }
      ],
      "name": "handle",
      "outputs": [],
      "stateMutability": "nonpayable",
      "type": "function"
    }
  ],
  "bytecode": "0x608060405260686000806101000a81548163ffffffff021916908363ffffffff16021790555034801561003157600080fd5b506000600181905550610e7c806100496000396000f3fe608060405234801561001057600080fd5b506004361061004c5760003560e01c8063affed0e014610051578063bf48bcb61461006f578063cb9199a21461012a578063da795ea314610182575b600080fd5b6100596101da565b6040518082815260200191505060405180910390f35b6101286004803603602081101561008557600080fd5b81019080803590602001906401000000008111156100a257600080fd5b8201836020820111156100b457600080fd5b803590602001918460018302840111640100000000831117156100d657600080fd5b91908080601f016020809104026020016040519081016040528093929190818152602001838380828437600081840152601f19601f8201169050808301925050505050505091929192905050506101e0565b005b61016c6004803603602081101561014057600080fd5b81019080803573ffffffffffffffffffffffffffffffffffffffff1690602001909291905050506104ca565b6040518082815260200191505060405180910390f35b6101d86004803603606081101561019857600080fd5b8101908080359060200190929190803573ffffffffffffffffffffffffffffffffffffffff169060200190929190803590602001909291905050506104e2565b005b60015481565b6000809054906101000a900463ffffffff1663ffffffff16815114610250576040517f08c379a0000000000000000000000000000000000000000000000000000000008152600401808060200182810382526038815260200180610dcb6038913960400191505060405180910390fd5b606061026960006020846107899092919063ffffffff16565b9050600061028160208461087e90919063ffffffff16565b9050600061029960348561087e90919063ffffffff16565b905060606102b460486020876107899092919063ffffffff16565b905060008173__Decoder_______________________________636d78dc9c90916040518263ffffffff1660e01b81526004018080602001828103825283818151815260200191508051906020019080838360005b83811015610324578082015181840152602081019050610309565b50505050905090810190601f1680156103515780820380516001836020036101000a031916815260200191505b509250505060206040518083038186803b15801561036e57600080fd5b505af4158015610382573d6000803e3d6000fd5b505050506040513d602081101561039857600080fd5b810190808051906020019092919050505090506103b684848361091e565b7ffa064c20e786f9c8eea8b47bca040106b30ef2db99f72ab86f16d0377531c0228585858460405180806020018573ffffffffffffffffffffffffffffffffffffffff1673ffffffffffffffffffffffffffffffffffffffff1681526020018473ffffffffffffffffffffffffffffffffffffffff1673ffffffffffffffffffffffffffffffffffffffff168152602001838152602001828103825286818151815260200191508051906020019080838360005b8381101561048557808201518184015260208101905061046a565b50505050905090810190601f1680156104b25780820380516001836020036101000a031916815260200191505b509550505050505060405180910390a1505050505050565b60026020528060005260406000206000915090505481565b8173ffffffffffffffffffffffffffffffffffffffff166323b872dd3330846040518463ffffffff1660e01b8152600401808473ffffffffffffffffffffffffffffffffffffffff1673ffffffffffffffffffffffffffffffffffffffff1681526020018373ffffffffffffffffffffffffffffffffffffffff1673ffffffffffffffffffffffffffffffffffffffff1681526020018281526020019350505050602060405180830381600087803b15801561059d57600080fd5b505af11580156105b1573d6000803e3d6000fd5b505050506040513d60208110156105c757600080fd5b810190808051906020019092919050505061062d576040517f08c379a0000000000000000000000000000000000000000000000000000000008152600401808060200182810382526044815260200180610e036044913960600191505060405180910390fd5b61067f81600260008573ffffffffffffffffffffffffffffffffffffffff1673ffffffffffffffffffffffffffffffffffffffff16815260200190815260200160002054610bf990919063ffffffff16565b600260008473ffffffffffffffffffffffffffffffffffffffff1673ffffffffffffffffffffffffffffffffffffffff168152602001908152602001600020819055506106d760018054610bf990919063ffffffff16565b6001819055507f16aa057ef2cf0031961212128fed55fffeefd816288d34930e2c5989e030c61733848484604051808573ffffffffffffffffffffffffffffffffffffffff1673ffffffffffffffffffffffffffffffffffffffff1681526020018481526020018373ffffffffffffffffffffffffffffffffffffffff1673ffffffffffffffffffffffffffffffffffffffff16815260200182815260200194505050505060405180910390a1505050565b606081830184511015610804576040517f08c379a00000000000000000000000000000000000000000000000000000000081526004018080602001828103825260128152602001807f52656164206f7574206f6620626f756e6473000000000000000000000000000081525060200191505060405180910390fd5b606082156000811461082157604051915060208201604052610872565b6040519150601f8416801560200281840101858101878315602002848b0101015b8183101561085f5780518352602083019250602081019050610842565b50868552601f19601f8301166040525050505b50809150509392505050565b600060148201835110156108fa576040517f08c379a00000000000000000000000000000000000000000000000000000000081526004018080602001828103825260128152602001807f52656164206f7574206f6620626f756e6473000000000000000000000000000081525060200191505060405180910390fd5b60006c01000000000000000000000000836020860101510490508091505092915050565b60008111610994576040517f08c379a000000000000000000000000000000000000000000000000000000000815260040180806020018281038252601d8152602001807f4d75737420756e6c6f636b206120706f73697469766520616d6f756e7400000081525060200191505060405180910390fd5b80600260008473ffffffffffffffffffffffffffffffffffffffff1673ffffffffffffffffffffffffffffffffffffffff1681526020019081526020016000205411610a2b576040517f08c379a000000000000000000000000000000000000000000000000000000000815260040180806020018281038252603f815260200180610d8c603f913960400191505060405180910390fd5b610a7d81600260008573ffffffffffffffffffffffffffffffffffffffff1673ffffffffffffffffffffffffffffffffffffffff16815260200190815260200160002054610c8190919063ffffffff16565b600260008473ffffffffffffffffffffffffffffffffffffffff1673ffffffffffffffffffffffffffffffffffffffff168152602001908152602001600020819055508173ffffffffffffffffffffffffffffffffffffffff1663a9059cbb84836040518363ffffffff1660e01b8152600401808373ffffffffffffffffffffffffffffffffffffffff1673ffffffffffffffffffffffffffffffffffffffff16815260200182815260200192505050602060405180830381600087803b158015610b4757600080fd5b505af1158015610b5b573d6000803e3d6000fd5b505050506040513d6020811015610b7157600080fd5b8101908080519060200190929190505050610bf4576040517f08c379a000000000000000000000000000000000000000000000000000000000815260040180806020018281038252601b8152602001807f455243323020746f6b656e207472616e73666572206661696c6564000000000081525060200191505060405180910390fd5b505050565b600080828401905083811015610c77576040517f08c379a000000000000000000000000000000000000000000000000000000000815260040180806020018281038252601b8152602001807f536166654d6174683a206164646974696f6e206f766572666c6f77000000000081525060200191505060405180910390fd5b8091505092915050565b6000610cc383836040518060400160405280601e81526020017f536166654d6174683a207375627472616374696f6e206f766572666c6f770000815250610ccb565b905092915050565b6000838311158290610d78576040517f08c379a00000000000000000000000000000000000000000000000000000000081526004018080602001828103825283818151815260200191508051906020019080838360005b83811015610d3d578082015181840152602081019050610d22565b50505050905090810190601f168015610d6a5780820380516001836020036101000a031916815260200191505b509250505060405180910390fd5b506000838503905080915050939250505056fe455243323020746f6b656e2062616c616e63657320696e73756666696369656e7420746f2066756c66696c6c2074686520756e6c6f636b20726571756573744d657373616765206d75737420636f6e7461696e2031303420627974657320666f722061207375636365737366756c206465636f64696e67436f6e747261637420746f6b656e20616c6c6f77616e63657320696e73756666696369656e7420746f20636f6d706c6574652074686973206c6f636b2072657175657374a2646970667358221220d3bba71713d7942583d85483eed6173a9f581e262707964ecd456410ffe1a17064736f6c63430006020033",
  "source": "// SPDX-License-Identifier: MIT\npragma solidity >=0.6.2;\n\nimport \"@openzeppelin/contracts/math/SafeMath.sol\";\nimport \"@openzeppelin/contracts/token/ERC20/IERC20.sol\";\nimport \"./Decoder.sol\";\nimport \"./Application.sol\";\n\ncontract ERC20App is Application {\n    using SafeMath for uint256;\n    using Decoder for bytes;\n\n    uint32 MESSAGE_LENGTH = 104;\n\n    uint256 public nonce;\n    mapping(address => uint256) public totalTokens;\n\n    event Transfer(address _sender, bytes32 _recipient, address _token, uint256 _amount);\n    event Unlock(bytes _sender, address _recipient, address _token, uint256 _amount);\n\n    constructor() public {\n        nonce = 0;\n    }\n\n    function sendERC20(bytes32 _recipient, address _tokenAddr, uint256 _amount)\n        public\n    {\n       require(\n            IERC20(_tokenAddr).transferFrom(msg.sender, address(this), _amount),\n            \"Contract token allowances insufficient to complete this lock request\"\n        );\n\n        // Increment locked ERC20 token counter by this amount\n        totalTokens[_tokenAddr] = totalTokens[_tokenAddr].add(_amount);\n        // Increment global nonce\n        nonce = nonce.add(1);\n\n        emit Transfer(msg.sender, _recipient, _tokenAddr, _amount);\n    }\n\n    function handle(bytes memory _data)\n        public\n        override\n    {\n        require(_data.length == MESSAGE_LENGTH, \"Message must contain 104 bytes for a successful decoding\");\n\n        // Decode sender bytes\n        bytes memory sender = _data.slice(0, 32);\n        // Decode recipient address\n        address recipient = _data.sliceAddress(32);\n        // Decode token address\n        address tokenAddr = _data.sliceAddress(32 + 20);\n        // Deocde amount int256\n        bytes memory amountBytes = _data.slice(32 + 40, 32);\n        uint256 amount = amountBytes.decodeUint256();\n\n        sendTokens(recipient, tokenAddr, amount);\n        emit Unlock(sender, recipient, tokenAddr, amount);\n    }\n\n    function sendTokens(address _recipient, address _token, uint256 _amount)\n        internal\n    {\n        require(_amount > 0, \"Must unlock a positive amount\");\n        require(totalTokens[_token] > _amount, \"ERC20 token balances insufficient to fulfill the unlock request\");\n\n        totalTokens[_token] = totalTokens[_token].sub(_amount);\n        require(IERC20(_token).transfer(_recipient, _amount), \"ERC20 token transfer failed\");\n    }\n}\n",
  "sourcePath": "/Users/denali/go/src/github.com/snowfork/polkadot-ethereum/ethereum/contracts/ERC20App.sol",
  "compiler": {
    "name": "solc",
    "version": "0.6.2+commit.bacdbe57.Emscripten.clang"
  },
  "schemaVersion": "3.1.0",
  "updatedAt": "2020-09-16T08:59:12.539Z",
  "devdoc": {
    "methods": {}
  },
  "userdoc": {
    "methods": {}
  }
}