{
  "contractName": "ETHApp",
  "abi": [
    {
      "inputs": [],
      "stateMutability": "nonpayable",
      "type": "constructor"
    },
    {
      "anonymous": false,
      "inputs": [
        {
          "indexed": false,
          "internalType": "address",
          "name": "_sender",
          "type": "address"
        },
        {
          "indexed": false,
          "internalType": "bytes32",
          "name": "_recipient",
          "type": "bytes32"
        },
        {
          "indexed": false,
          "internalType": "uint256",
          "name": "_amount",
          "type": "uint256"
        }
      ],
      "name": "AppTransfer",
      "type": "event"
    },
    {
      "anonymous": false,
      "inputs": [
        {
          "indexed": false,
          "internalType": "bytes",
          "name": "_sender",
          "type": "bytes"
        },
        {
          "indexed": false,
          "internalType": "address",
          "name": "_recipient",
          "type": "address"
        },
        {
          "indexed": false,
          "internalType": "uint256",
          "name": "_amount",
          "type": "uint256"
        }
      ],
      "name": "Unlock",
      "type": "event"
    },
    {
      "inputs": [],
      "name": "totalETH",
      "outputs": [
        {
          "internalType": "uint256",
          "name": "",
          "type": "uint256"
        }
      ],
      "stateMutability": "view",
      "type": "function"
    },
    {
      "inputs": [
        {
          "internalType": "bytes32",
          "name": "_recipient",
          "type": "bytes32"
        }
      ],
      "name": "sendETH",
      "outputs": [],
      "stateMutability": "payable",
      "type": "function"
    },
    {
      "inputs": [
        {
          "internalType": "bytes",
          "name": "_data",
          "type": "bytes"
        }
      ],
      "name": "handle",
      "outputs": [],
      "stateMutability": "nonpayable",
      "type": "function"
    }
  ],
  "bytecode": "0x608060405234801561001057600080fd5b50600080819055506109ec806100276000396000f3fe6080604052600436106100345760003560e01c80630846691f1461003957806336bdee7414610067578063bf48bcb614610092575b600080fd5b6100656004803603602081101561004f57600080fd5b810190808035906020019092919050505061015a565b005b34801561007357600080fd5b5061007c610244565b6040518082815260200191505060405180910390f35b34801561009e57600080fd5b50610158600480360360208110156100b557600080fd5b81019080803590602001906401000000008111156100d257600080fd5b8201836020820111156100e457600080fd5b8035906020019184600183028401116401000000008311171561010657600080fd5b91908080601f016020809104026020016040519081016040528093929190818152602001838380828437600081840152601f19601f82011690508083019250505050505050919291929050505061024a565b005b600034116101b3576040517f08c379a00000000000000000000000000000000000000000000000000000000081526004018080602001828103825260258152602001806109556025913960400191505060405180910390fd5b6101c8346000546104f790919063ffffffff16565b6000819055507f691df88ac02f64f3b39fb1b52b940a2730e41ae20f39eec131634df2f8edce77338234604051808473ffffffffffffffffffffffffffffffffffffffff1673ffffffffffffffffffffffffffffffffffffffff168152602001838152602001828152602001935050505060405180910390a150565b60005481565b605467ffffffffffffffff168151146102cb576040517f08c379a000000000000000000000000000000000000000000000000000000000815260040180806020018281038252600f8152602001807f496e76616c6964207061796c6f6164000000000000000000000000000000000081525060200191505060405180910390fd5b60606102e4600060208461057f9092919063ffffffff16565b905060006102fc60208461067490919063ffffffff16565b90506060610317603460208661057f9092919063ffffffff16565b905060008173__Decoder_______________________________636d78dc9c90916040518263ffffffff1660e01b81526004018080602001828103825283818151815260200191508051906020019080838360005b8381101561038757808201518184015260208101905061036c565b50505050905090810190601f1680156103b45780820380516001836020036101000a031916815260200191505b509250505060206040518083038186803b1580156103d157600080fd5b505af41580156103e5573d6000803e3d6000fd5b505050506040513d60208110156103fb57600080fd5b810190808051906020019092919050505090506104188382610714565b7f650214a28fbf147999e14f248574f56cb6f209a0f60bef5f17c4f6d34f5f2ca184848360405180806020018473ffffffffffffffffffffffffffffffffffffffff1673ffffffffffffffffffffffffffffffffffffffff168152602001838152602001828103825285818151815260200191508051906020019080838360005b838110156104b4578082015181840152602081019050610499565b50505050905090810190601f1680156104e15780820380516001836020036101000a031916815260200191505b5094505050505060405180910390a15050505050565b600080828401905083811015610575576040517f08c379a000000000000000000000000000000000000000000000000000000000815260040180806020018281038252601b8152602001807f536166654d6174683a206164646974696f6e206f766572666c6f77000000000081525060200191505060405180910390fd5b8091505092915050565b6060818301845110156105fa576040517f08c379a00000000000000000000000000000000000000000000000000000000081526004018080602001828103825260128152602001807f52656164206f7574206f6620626f756e6473000000000000000000000000000081525060200191505060405180910390fd5b606082156000811461061757604051915060208201604052610668565b6040519150601f8416801560200281840101858101878315602002848b0101015b818310156106555780518352602083019250602081019050610638565b50868552601f19601f8301166040525050505b50809150509392505050565b600060148201835110156106f0576040517f08c379a00000000000000000000000000000000000000000000000000000000081526004018080602001828103825260128152602001807f52656164206f7574206f6620626f756e6473000000000000000000000000000081525060200191505060405180910390fd5b60006c01000000000000000000000000836020860101510490508091505092915050565b6000811161078a576040517f08c379a000000000000000000000000000000000000000000000000000000000815260040180806020018281038252601d8152602001807f4d75737420756e6c6f636b206120706f73697469766520616d6f756e7400000081525060200191505060405180910390fd5b80600054116107e4576040517f08c379a000000000000000000000000000000000000000000000000000000000815260040180806020018281038252603d81526020018061097a603d913960400191505060405180910390fd5b6107f98160005461084a90919063ffffffff16565b6000819055508173ffffffffffffffffffffffffffffffffffffffff166108fc829081150290604051600060405180830381858888f19350505050158015610845573d6000803e3d6000fd5b505050565b600061088c83836040518060400160405280601e81526020017f536166654d6174683a207375627472616374696f6e206f766572666c6f770000815250610894565b905092915050565b6000838311158290610941576040517f08c379a00000000000000000000000000000000000000000000000000000000081526004018080602001828103825283818151815260200191508051906020019080838360005b838110156109065780820151818401526020810190506108eb565b50505050905090810190601f1680156109335780820380516001836020036101000a031916815260200191505b509250505060405180910390fd5b506000838503905080915050939250505056fe56616c7565206f66207472616e73616374696f6e206d75737420626520706f73697469766545544820746f6b656e2062616c616e63657320696e73756666696369656e7420746f2066756c66696c6c2074686520756e6c6f636b2072657175657374a2646970667358221220521a0fbc9c7c1ddea807249be585ac5a2256bd60fac903cd7bd109e4cdec496064736f6c63430006020033",
  "source": "// SPDX-License-Identifier: MIT\npragma solidity >=0.6.2;\n\nimport \"@openzeppelin/contracts/math/SafeMath.sol\";\nimport \"./Decoder.sol\";\nimport \"./Application.sol\";\n\ncontract ETHApp is Application {\n    using SafeMath for uint256;\n    using Decoder for bytes;\n\n    uint64 constant PAYLOAD_LENGTH = 84;\n\n    uint256 public totalETH;\n\n    event AppTransfer(address _sender, bytes32 _recipient, uint256 _amount);\n    event Unlock(bytes _sender, address _recipient, uint256 _amount);\n\n    constructor() public {\n        totalETH = 0;\n    }\n\n    function sendETH(bytes32 _recipient)\n        public\n        payable\n    {\n        require(msg.value > 0, \"Value of transaction must be positive\");\n\n        // Increment locked Ethereum counter by this amount\n        totalETH = totalETH.add(msg.value);\n\n        emit AppTransfer(msg.sender, _recipient, msg.value);\n    }\n\n    function handle(bytes memory _data)\n        public\n        override\n    {\n        require(_data.length == PAYLOAD_LENGTH, \"Invalid payload\");\n\n        // Decode sender bytes\n        bytes memory sender = _data.slice(0, 32);\n        // Decode recipient address\n        address payable recipient = _data.sliceAddress(32);\n        // Deocde amount int256\n        bytes memory amountBytes = _data.slice(32 + 20, 32);\n        uint256 amount = amountBytes.decodeUint256();\n\n        unlockETH(recipient, amount);\n        emit Unlock(sender, recipient, amount);\n    }\n\n    function unlockETH(address payable _recipient, uint256 _amount)\n        internal\n    {\n        require(_amount > 0, \"Must unlock a positive amount\");\n        require(totalETH > _amount, \"ETH token balances insufficient to fulfill the unlock request\");\n\n        totalETH = totalETH.sub(_amount);\n        _recipient.transfer(_amount);\n    }\n}\n",
  "sourcePath": "/Users/denali/go/src/github.com/snowfork/polkadot-ethereum/ethereum/contracts/ETHApp.sol",
  "compiler": {
    "name": "solc",
    "version": "0.6.2+commit.bacdbe57.Emscripten.clang"
  },
  "schemaVersion": "3.1.0",
  "updatedAt": "2020-09-21T21:24:44.102Z",
  "devdoc": {
    "methods": {}
  },
  "userdoc": {
    "methods": {}
  }
}