{
  "contractName": "ETHApp",
  "abi": [
    {
      "inputs": [],
      "stateMutability": "nonpayable",
      "type": "constructor"
    },
    {
      "anonymous": false,
      "inputs": [
        {
          "indexed": false,
          "internalType": "address",
          "name": "_sender",
          "type": "address"
        },
        {
          "indexed": false,
          "internalType": "bytes32",
          "name": "_recipient",
          "type": "bytes32"
        },
        {
          "indexed": false,
          "internalType": "uint256",
          "name": "_amount",
          "type": "uint256"
        }
      ],
      "name": "Transfer",
      "type": "event"
    },
    {
      "anonymous": false,
      "inputs": [
        {
          "indexed": false,
          "internalType": "bytes",
          "name": "_sender",
          "type": "bytes"
        },
        {
          "indexed": false,
          "internalType": "address",
          "name": "_recipient",
          "type": "address"
        },
        {
          "indexed": false,
          "internalType": "uint256",
          "name": "_amount",
          "type": "uint256"
        }
      ],
      "name": "Unlock",
      "type": "event"
    },
    {
      "inputs": [],
      "name": "nonce",
      "outputs": [
        {
          "internalType": "uint256",
          "name": "",
          "type": "uint256"
        }
      ],
      "stateMutability": "view",
      "type": "function"
    },
    {
      "inputs": [],
      "name": "totalETH",
      "outputs": [
        {
          "internalType": "uint256",
          "name": "",
          "type": "uint256"
        }
      ],
      "stateMutability": "view",
      "type": "function"
    },
    {
      "inputs": [
        {
          "internalType": "bytes32",
          "name": "_recipient",
          "type": "bytes32"
        }
      ],
      "name": "sendETH",
      "outputs": [],
      "stateMutability": "payable",
      "type": "function"
    },
    {
      "inputs": [
        {
          "internalType": "bytes",
          "name": "_data",
          "type": "bytes"
        }
      ],
      "name": "handle",
      "outputs": [],
      "stateMutability": "nonpayable",
      "type": "function"
    }
  ],
  "bytecode": "0x608060405260546000806101000a81548167ffffffffffffffff021916908367ffffffffffffffff16021790555034801561003957600080fd5b506000600181905550610a6e806100516000396000f3fe60806040526004361061003f5760003560e01c80630846691f1461004457806336bdee7414610072578063affed0e01461009d578063bf48bcb6146100c8575b600080fd5b6100706004803603602081101561005a57600080fd5b8101908080359060200190929190505050610190565b005b34801561007e57600080fd5b50610087610295565b6040518082815260200191505060405180910390f35b3480156100a957600080fd5b506100b261029b565b6040518082815260200191505060405180910390f35b3480156100d457600080fd5b5061018e600480360360208110156100eb57600080fd5b810190808035906020019064010000000081111561010857600080fd5b82018360208201111561011a57600080fd5b8035906020019184600183028401116401000000008311171561013c57600080fd5b91908080601f016020809104026020016040519081016040528093929190818152602001838380828437600081840152601f19601f8201169050808301925050505050505091929192905050506102a1565b005b600034116101e9576040517f08c379a00000000000000000000000000000000000000000000000000000000081526004018080602001828103825260258152602001806109a36025913960400191505060405180910390fd5b6101fe3460025461054590919063ffffffff16565b6002819055506102196001805461054590919063ffffffff16565b6001819055507fae82749358218d8026f6cc57a7ab3aa05aa7bcf840f758ab26d553048fb1d467338234604051808473ffffffffffffffffffffffffffffffffffffffff1673ffffffffffffffffffffffffffffffffffffffff168152602001838152602001828152602001935050505060405180910390a150565b60025481565b60015481565b6000809054906101000a900467ffffffffffffffff1667ffffffffffffffff16815114610319576040517f08c379a0000000000000000000000000000000000000000000000000000000008152600401808060200182810382526034815260200180610a056034913960400191505060405180910390fd5b606061033260006020846105cd9092919063ffffffff16565b9050600061034a6020846106c290919063ffffffff16565b9050606061036560346020866105cd9092919063ffffffff16565b905060008173__Decoder_______________________________636d78dc9c90916040518263ffffffff1660e01b81526004018080602001828103825283818151815260200191508051906020019080838360005b838110156103d55780820151818401526020810190506103ba565b50505050905090810190601f1680156104025780820380516001836020036101000a031916815260200191505b509250505060206040518083038186803b15801561041f57600080fd5b505af4158015610433573d6000803e3d6000fd5b505050506040513d602081101561044957600080fd5b810190808051906020019092919050505090506104668382610762565b7f650214a28fbf147999e14f248574f56cb6f209a0f60bef5f17c4f6d34f5f2ca184848360405180806020018473ffffffffffffffffffffffffffffffffffffffff1673ffffffffffffffffffffffffffffffffffffffff168152602001838152602001828103825285818151815260200191508051906020019080838360005b838110156105025780820151818401526020810190506104e7565b50505050905090810190601f16801561052f5780820380516001836020036101000a031916815260200191505b5094505050505060405180910390a15050505050565b6000808284019050838110156105c3576040517f08c379a000000000000000000000000000000000000000000000000000000000815260040180806020018281038252601b8152602001807f536166654d6174683a206164646974696f6e206f766572666c6f77000000000081525060200191505060405180910390fd5b8091505092915050565b606081830184511015610648576040517f08c379a00000000000000000000000000000000000000000000000000000000081526004018080602001828103825260128152602001807f52656164206f7574206f6620626f756e6473000000000000000000000000000081525060200191505060405180910390fd5b6060821560008114610665576040519150602082016040526106b6565b6040519150601f8416801560200281840101858101878315602002848b0101015b818310156106a35780518352602083019250602081019050610686565b50868552601f19601f8301166040525050505b50809150509392505050565b6000601482018351101561073e576040517f08c379a00000000000000000000000000000000000000000000000000000000081526004018080602001828103825260128152602001807f52656164206f7574206f6620626f756e6473000000000000000000000000000081525060200191505060405180910390fd5b60006c01000000000000000000000000836020860101510490508091505092915050565b600081116107d8576040517f08c379a000000000000000000000000000000000000000000000000000000000815260040180806020018281038252601d8152602001807f4d75737420756e6c6f636b206120706f73697469766520616d6f756e7400000081525060200191505060405180910390fd5b8060025411610832576040517f08c379a000000000000000000000000000000000000000000000000000000000815260040180806020018281038252603d8152602001806109c8603d913960400191505060405180910390fd5b6108478160025461089890919063ffffffff16565b6002819055508173ffffffffffffffffffffffffffffffffffffffff166108fc829081150290604051600060405180830381858888f19350505050158015610893573d6000803e3d6000fd5b505050565b60006108da83836040518060400160405280601e81526020017f536166654d6174683a207375627472616374696f6e206f766572666c6f7700008152506108e2565b905092915050565b600083831115829061098f576040517f08c379a00000000000000000000000000000000000000000000000000000000081526004018080602001828103825283818151815260200191508051906020019080838360005b83811015610954578082015181840152602081019050610939565b50505050905090810190601f1680156109815780820380516001836020036101000a031916815260200191505b509250505060405180910390fd5b506000838503905080915050939250505056fe56616c7565206f66207472616e73616374696f6e206d75737420626520706f73697469766545544820746f6b656e2062616c616e63657320696e73756666696369656e7420746f2066756c66696c6c2074686520756e6c6f636b207265717565737444617461206d75737420636f6e7461696e20383420627974657320666f722061207375636365737366756c206465636f64696e67a26469706673582212207831972a2613c038488bd4f5c3123fdada41223277fb63d7a337cba2d5e3604164736f6c63430006020033",
  "source": "// SPDX-License-Identifier: MIT\npragma solidity >=0.6.2;\n\nimport \"@openzeppelin/contracts/math/SafeMath.sol\";\nimport \"./Decoder.sol\";\nimport \"./Application.sol\";\n\ncontract ETHApp is Application {\n    using SafeMath for uint256;\n    using Decoder for bytes;\n\n    uint64 MESSAGE_LENGTH = 84;\n\n    uint256 public nonce;\n    uint256 public totalETH;\n\n    event Transfer(address _sender, bytes32 _recipient, uint256 _amount);\n    event Unlock(bytes _sender, address _recipient, uint256 _amount);\n\n    constructor() public {\n        nonce = 0;\n    }\n\n    function sendETH(bytes32 _recipient)\n        public\n        payable\n    {\n        require(msg.value > 0, \"Value of transaction must be positive\");\n\n        // Increment locked Ethereum counter by this amount\n        totalETH = totalETH.add(msg.value);\n        // Increment global nonce\n        nonce = nonce.add(1);\n\n        emit Transfer(msg.sender, _recipient, msg.value);\n    }\n\n    function handle(bytes memory _data)\n        public\n        override\n    {\n        require(_data.length == MESSAGE_LENGTH, \"Data must contain 84 bytes for a successful decoding\");\n\n        // Decode sender bytes\n        bytes memory sender = _data.slice(0, 32);\n        // Decode recipient address\n        address payable recipient = _data.sliceAddress(32);\n        // Deocde amount int256\n        bytes memory amountBytes = _data.slice(32 + 20, 32);\n        uint256 amount = amountBytes.decodeUint256();\n\n        unlockETH(recipient, amount);\n        emit Unlock(sender, recipient, amount);\n    }\n\n    function unlockETH(address payable _recipient, uint256 _amount)\n        internal\n    {\n        require(_amount > 0, \"Must unlock a positive amount\");\n        require(totalETH > _amount, \"ETH token balances insufficient to fulfill the unlock request\");\n\n        totalETH = totalETH.sub(_amount);\n        _recipient.transfer(_amount);\n    }\n}\n",
  "sourcePath": "/Users/denali/go/src/github.com/snowfork/polkadot-ethereum/ethereum/contracts/ETHApp.sol",
  "compiler": {
    "name": "solc",
    "version": "0.6.2+commit.bacdbe57.Emscripten.clang"
  },
  "schemaVersion": "3.1.0",
  "updatedAt": "2020-09-16T08:59:12.543Z",
  "devdoc": {
    "methods": {}
  },
  "userdoc": {
    "methods": {}
  }
}