{
  "contractName": "Scale",
  "abi": [
    {
      "inputs": [
        {
          "internalType": "bytes",
          "name": "data",
          "type": "bytes"
        }
      ],
      "name": "decodeUint256",
      "outputs": [
        {
          "internalType": "uint256",
          "name": "",
          "type": "uint256"
        }
      ],
      "stateMutability": "pure",
      "type": "function"
    },
    {
      "inputs": [
        {
          "internalType": "bytes",
          "name": "data",
          "type": "bytes"
        }
      ],
      "name": "decodeUintCompact",
      "outputs": [
        {
          "internalType": "uint256",
          "name": "",
          "type": "uint256"
        }
      ],
      "stateMutability": "pure",
      "type": "function"
    }
  ],
  "bytecode": "0x608060405234801561001057600080fd5b506104e1806100206000396000f3fe608060405234801561001057600080fd5b50600436106100365760003560e01c80636d78dc9c1461003b578063a8b871dd1461010a575b600080fd5b6100f46004803603602081101561005157600080fd5b810190808035906020019064010000000081111561006e57600080fd5b82018360208201111561008057600080fd5b803590602001918460018302840111640100000000831117156100a257600080fd5b91908080601f016020809104026020016040519081016040528093929190818152602001838380828437600081840152601f19601f8201169050808301925050505050505091929192905050506101d9565b6040518082815260200191505060405180910390f35b6101c36004803603602081101561012057600080fd5b810190808035906020019064010000000081111561013d57600080fd5b82018360208201111561014f57600080fd5b8035906020019184600183028401116401000000008311171561017157600080fd5b91908080601f016020809104026020016040519081016040528093929190818152602001838380828437600081840152601f19601f820116905080830192505050505050509192919290505050610233565b6040518082815260200191505060405180910390f35b6000806000835190505b6000811115610229576001810360080260020a84600183038151811061020557fe5b602001015160f81c60f81b60f81c60ff1602820191508080600190039150506101e3565b5080915050919050565b60008061024183600061044f565b9050600060038216905060008160ff16141561026b5760028260ff16901c60ff169250505061044a565b60018160ff1614156102c457600061028485600161044f565b905060008160ff16905060068167ffffffffffffffff16901b905060028460ff16901c60ff16810190508067ffffffffffffffff1694505050505061044a565b60028160ff16141561035f5760006102dd85600161044f565b905060006102ec86600261044f565b905060006102fb87600361044f565b9050600060088460ff1663ffffffff16901b8660ff16179050600060108460ff1663ffffffff16901b82179050600060188460ff1663ffffffff16901b8217905060028163ffffffff16901c90508063ffffffff169850505050505050505061044a565b60038160ff1614156103d957600060028360ff16901c905060208160ff16116103d3576040517f08c379a00000000000000000000000000000000000000000000000000000000081526004018080602001828103825260358152602001806104776035913960400191505060405180910390fd5b50610447565b6040517f08c379a000000000000000000000000000000000000000000000000000000000815260040180806020018281038252601a8152602001807f436f64652073686f756c6420626520756e726561636861626c6500000000000081525060200191505060405180910390fd5b50505b919050565b6000828260ff168151811061046057fe5b602001015160f81c60f81b60f81c90509291505056fe4e6f7420737570706f727465643a206e756d6265722063616e6e6f742062652067726561746572207468616e203332206279746573a26469706673582212205ad14f1ab0bb3aba7d5d7d9d347e704720f8a2c4103ddb07134dc418fd8fa3f864736f6c63430006020033",
  "source": "// SPDX-License-Identifier: MIT\npragma solidity >=0.6.2;\n\ncontract Scale {\n\n    // Decodes a SCALE encoded uint256 by converting bytes (bid endian) to little endian format\n    function decodeUint256(bytes memory data)\n        public\n        pure\n        returns (uint256)\n    {\n        uint256 number;\n        for(uint i = data.length; i > 0; i--) {\n            number = number + uint(uint8(data[i-1])) * (2 ** (8 * (i-1)));\n        }\n        return number;\n    }\n\n    // Decodes a SCALE encoded compact unsigned integer\n    function decodeUintCompact(bytes memory data)\n        public\n        pure\n        returns (uint256)\n    {\n        uint8 b = readByteAtIndex(data, 0);           // read the first byte\n        uint8 mode = b & 3;                           // bitwise operation\n\n        if (mode == 0) {                               // [0, 63]\n            return b >> 2;                            // right shift to remove mode bits\n        } else if (mode == 1) {                        // [64, 16383]\n            uint8 bb = readByteAtIndex(data, 1);      // read the second byte\n            uint64 r = bb;                            // convert to uint64\n            r <<= 6;                                  // multiply by * 2^6\n            r += b >> 2;                              // right shift to remove mode bits\n            return r;\n        } else if (mode == 2) {                        // [16384, 1073741823]\n            uint8 b2 = readByteAtIndex(data, 1);      // read the next 3 bytes\n            uint8 b3 = readByteAtIndex(data, 2);\n            uint8 b4 = readByteAtIndex(data, 3);\n\n            uint32 x1 = uint32(b) | uint32(b2) << 8;  // convert to little endian\n            uint32 x2 = x1 | uint32(b3) << 16;\n            uint32 x3 = x2 | uint32(b4) << 24;\n\n            x3 >>= 2;                                 // remove the last 2 mode bits\n            return uint256(x3);\n        } else if (mode == 3) {                        // [1073741824, 4503599627370496]\n            uint8 l = b >> 2;                         // remove mode bits\n            require(l > 32, \"Not supported: number cannot be greater than 32 bytes\");\n        } else {\n            revert(\"Code should be unreachable\");\n        }\n    }\n\n    // Read a byte at a specific index and return it as type uint8\n    function readByteAtIndex(bytes memory data, uint8 index)\n        internal\n        pure\n        returns (uint8)\n    {\n        return uint8(data[index]);\n    }\n}\n",
  "sourcePath": "/Users/denali/go/src/github.com/snowfork/polkadot-ethereum/ethereum/contracts/Scale.sol",
  "compiler": {
    "name": "solc",
    "version": "0.6.2+commit.bacdbe57.Emscripten.clang"
  },
  "schemaVersion": "3.1.0",
  "updatedAt": "2020-09-16T08:59:12.551Z",
  "devdoc": {
    "methods": {}
  },
  "userdoc": {
    "methods": {}
  }
}