{
  "contractName": "Verifier",
  "abi": [
    {
      "inputs": [
        {
          "internalType": "address",
          "name": "_operator",
          "type": "address"
        }
      ],
      "stateMutability": "nonpayable",
      "type": "constructor"
    },
    {
      "inputs": [],
      "name": "operator",
      "outputs": [
        {
          "internalType": "address",
          "name": "",
          "type": "address"
        }
      ],
      "stateMutability": "view",
      "type": "function"
    },
    {
      "inputs": [],
      "name": "verifyOperator",
      "outputs": [
        {
          "internalType": "bool",
          "name": "",
          "type": "bool"
        }
      ],
      "stateMutability": "view",
      "type": "function"
    },
    {
      "inputs": [
        {
          "internalType": "bytes",
          "name": "_rawMessage",
          "type": "bytes"
        },
        {
          "internalType": "bytes",
          "name": "_signature",
          "type": "bytes"
        }
      ],
      "name": "verifyBytes",
      "outputs": [
        {
          "internalType": "bool",
          "name": "",
          "type": "bool"
        }
      ],
      "stateMutability": "view",
      "type": "function"
    },
    {
      "inputs": [
        {
          "internalType": "bytes32",
          "name": "_hash",
          "type": "bytes32"
        },
        {
          "internalType": "bytes",
          "name": "_signature",
          "type": "bytes"
        }
      ],
      "name": "verify",
      "outputs": [
        {
          "internalType": "bool",
          "name": "",
          "type": "bool"
        }
      ],
      "stateMutability": "view",
      "type": "function"
    },
    {
      "inputs": [
        {
          "internalType": "bytes32",
          "name": "_hash",
          "type": "bytes32"
        },
        {
          "internalType": "bytes",
          "name": "_signature",
          "type": "bytes"
        }
      ],
      "name": "recover",
      "outputs": [
        {
          "internalType": "address",
          "name": "",
          "type": "address"
        }
      ],
      "stateMutability": "pure",
      "type": "function"
    }
  ],
  "bytecode": "0x608060405234801561001057600080fd5b5060405161093c38038061093c8339818101604052602081101561003357600080fd5b8101908080519060200190929190505050806000806101000a81548173ffffffffffffffffffffffffffffffffffffffff021916908373ffffffffffffffffffffffffffffffffffffffff160217905550506108a8806100946000396000f3fe608060405234801561001057600080fd5b50600436106100575760003560e01c806319045a251461005c578063258ae58214610161578063570ca7351461023e578063b674e3e414610288578063f0f1ea93146102aa575b600080fd5b61011f6004803603604081101561007257600080fd5b81019080803590602001909291908035906020019064010000000081111561009957600080fd5b8201836020820111156100ab57600080fd5b803590602001918460018302840111640100000000831117156100cd57600080fd5b91908080601f016020809104026020016040519081016040528093929190818152602001838380828437600081840152601f19601f820116905080830192505050505050509192919290505050610414565b604051808273ffffffffffffffffffffffffffffffffffffffff1673ffffffffffffffffffffffffffffffffffffffff16815260200191505060405180910390f35b6102246004803603604081101561017757600080fd5b81019080803590602001909291908035906020019064010000000081111561019e57600080fd5b8201836020820111156101b057600080fd5b803590602001918460018302840111640100000000831117156101d257600080fd5b91908080601f016020809104026020016040519081016040528093929190818152602001838380828437600081840152601f19601f8201169050808301925050505050505091929192905050506106a5565b604051808215151515815260200191505060405180910390f35b61024661070d565b604051808273ffffffffffffffffffffffffffffffffffffffff1673ffffffffffffffffffffffffffffffffffffffff16815260200191505060405180910390f35b610290610732565b604051808215151515815260200191505060405180910390f35b6103fa600480360360408110156102c057600080fd5b81019080803590602001906401000000008111156102dd57600080fd5b8201836020820111156102ef57600080fd5b8035906020019184600183028401116401000000008311171561031157600080fd5b91908080601f016020809104026020016040519081016040528093929190818152602001838380828437600081840152601f19601f8201169050808301925050505050505091929192908035906020019064010000000081111561037457600080fd5b82018360208201111561038657600080fd5b803590602001918460018302840111640100000000831117156103a857600080fd5b91908080601f016020809104026020016040519081016040528093929190818152602001838380828437600081840152601f19601f820116905080830192505050505050509192919290505050610789565b604051808215151515815260200191505060405180910390f35b60006041825114610470576040517f08c379a000000000000000000000000000000000000000000000000000000000815260040180806020018281038252602281526020018061080a6022913960400191505060405180910390fd5b60008060006020850151925060408501519150606085015160001a90507f7fffffffffffffffffffffffffffffff5d576e7357a4501ddfe92f46681b20a08260001c1115610509576040517f08c379a000000000000000000000000000000000000000000000000000000000815260040180806020018281038252602281526020018061082c6022913960400191505060405180910390fd5b601b8160ff16101561051c57601b810190505b601b8160ff16141580156105345750601c8160ff1614155b1561058a576040517f08c379a000000000000000000000000000000000000000000000000000000000815260040180806020018281038252602581526020018061084e6025913960400191505060405180910390fd5b600060018783868660405160008152602001604052604051808581526020018460ff1660ff1681526020018381526020018281526020019450505050506020604051602081039080840390855afa1580156105e9573d6000803e3d6000fd5b505050602060405103519050600073ffffffffffffffffffffffffffffffffffffffff168173ffffffffffffffffffffffffffffffffffffffff161415610698576040517f08c379a000000000000000000000000000000000000000000000000000000000815260040180806020018281038252601b8152602001807f56657269666965723a20696e76616c6964207369676e6174757265000000000081525060200191505060405180910390fd5b8094505050505092915050565b6000806106b28484610414565b90508073ffffffffffffffffffffffffffffffffffffffff166000809054906101000a900473ffffffffffffffffffffffffffffffffffffffff1673ffffffffffffffffffffffffffffffffffffffff161491505092915050565b6000809054906101000a900473ffffffffffffffffffffffffffffffffffffffff1681565b60008060009054906101000a900473ffffffffffffffffffffffffffffffffffffffff1673ffffffffffffffffffffffffffffffffffffffff163273ffffffffffffffffffffffffffffffffffffffff1614905090565b60008061079c84805190602001206107b1565b90506107a881846106a5565b91505092915050565b60008160405160200180807f19457468657265756d205369676e6564204d6573736167653a0a333200000000815250601c0182815260200191505060405160208183030381529060405280519060200120905091905056fe56657269666965723a20696e76616c6964207369676e6174757265206c656e67746845434453413a20696e76616c6964207369676e6174757265202773272076616c756556657269666965723a20696e76616c6964207369676e6174757265202776272076616c7565a26469706673582212207e5bc497ed9602434ea8817d0e973f7848a99bd4073fee5a714178a296978b6764736f6c63430006020033",
  "source": "// SPDX-License-Identifier: MIT\npragma solidity >=0.6.2;\n\ncontract Verifier {\n\n    address public operator;\n\n    /**\n     * @dev constructor sets the operator's address\n     * @param _operator address of the contract's operator\n     */\n    constructor(address _operator)\n    public\n    {\n        operator = _operator;\n    }\n\n    /**\n     * @dev verifies the operator as the original tx sender\n     * @return bool indicating if operator is the original sender\n     */\n    function verifyOperator()\n        public\n        view\n        returns (bool)\n    {\n       return tx.origin == operator;\n    }\n\n    /**\n     * @dev recreates the hashed prefixed message signed on the client from raw message bytes\n     * @param _rawMessage bytes _rawMessage is the raw message\n     * @param _signature bytes _signature is the operator's signature upon the hashed, prefixed message\n     * @return bool indicating if operator is the signer\n     */\n    function verifyBytes(bytes memory _rawMessage, bytes memory _signature)\n        public\n        view\n        returns (bool)\n    {\n        // This recreates the message hash that was signed on the client\n        bytes32 signedHash = prefixed(keccak256(_rawMessage));\n        // Verify that this signature is by the operator on the message hash\n        return verify(signedHash, _signature);\n    }\n\n    /**\n     * @dev Builds a prefixed hash to mimic the behavior of eth_sign\n     * @param _hashedMessage bytes32 is the unprefixed hashed message\n     * @return bytes32 the prefixed hashed message\n     */\n    function prefixed(bytes32 _hashedMessage) internal pure returns (bytes32) {\n        return keccak256(\n            abi.encodePacked(\"\\x19Ethereum Signed Message:\\n32\", _hashedMessage)\n        );\n    }\n\n    /**\n     * @dev Verify if a hashed message was signed by the contract's operator\n     * @param _hash bytes32 _hash is hashed message\n     * @param _signature bytes _signature generated when operator signed the hash\n     * @return bool indicating if operator is the signer\n     */\n    function verify(bytes32 _hash, bytes memory _signature)\n        public\n        view\n        returns (bool)\n    {\n        address signer = recover(_hash, _signature);\n        return operator == signer;\n    }\n\n    /**\n     * @dev Recover signer address from a message using their signature\n     * @param _hash bytes32 is the signed message\n     * @param _signature bytes is generated by signing a hashed message\n     * @return address recovered from the given hash and signature\n     */\n    function recover(bytes32 _hash, bytes memory _signature)\n        public\n        pure\n        returns (address)\n    {\n        // Check the signature length\n        if (_signature.length != 65) {\n            revert(\"Verifier: invalid signature length\");\n        }\n\n        bytes32 r;\n        bytes32 s;\n        uint8 v;\n\n        // Divide the signature in r, s and v variables\n        // ecrecover takes the signature parameters, and the only way to get them\n        // currently is to use assembly.\n        // solium-disable-next-line security/no-inline-assembly\n        assembly {\n            r := mload(add(_signature, 0x20))\n            s := mload(add(_signature, 0x40))\n            v := byte(0, mload(add(_signature, 0x60)))\n        }\n\n        // Prevent malleable signatures, see https://www.di.ens.fr/~stern/data/St101.pdf\n        if (uint256(s) > 0x7FFFFFFFFFFFFFFFFFFFFFFFFFFFFFFF5D576E7357A4501DDFE92F46681B20A0) {\n            revert(\"ECDSA: invalid signature 's' value\");\n        }\n\n        // Version of signature should be 27 or 28, but 0 and 1 are also possible versions\n        if (v < 27) {\n            v += 27;\n        }\n\n        if (v != 27 && v != 28) {\n            revert(\"Verifier: invalid signature 'v' value\");\n        }\n\n        address signer = ecrecover(_hash, v, r, s);\n        require(signer != address(0), \"Verifier: invalid signature\");\n\n        return signer;\n    }\n}\n",
  "sourcePath": "/Users/denali/go/src/github.com/snowfork/polkadot-ethereum/ethereum/contracts/Verifier.sol",
  "compiler": {
    "name": "solc",
    "version": "0.6.2+commit.bacdbe57.Emscripten.clang"
  },
  "schemaVersion": "3.1.0",
  "updatedAt": "2020-09-21T21:24:44.114Z",
  "devdoc": {
    "methods": {
      "constructor": {
        "details": "constructor sets the operator's address",
        "params": {
          "_operator": "address of the contract's operator"
        }
      },
      "recover(bytes32,bytes)": {
        "details": "Recover signer address from a message using their signature",
        "params": {
          "_hash": "bytes32 is the signed message",
          "_signature": "bytes is generated by signing a hashed message"
        },
        "returns": {
          "_0": "address recovered from the given hash and signature"
        }
      },
      "verify(bytes32,bytes)": {
        "details": "Verify if a hashed message was signed by the contract's operator",
        "params": {
          "_hash": "bytes32 _hash is hashed message",
          "_signature": "bytes _signature generated when operator signed the hash"
        },
        "returns": {
          "_0": "bool indicating if operator is the signer"
        }
      },
      "verifyBytes(bytes,bytes)": {
        "details": "recreates the hashed prefixed message signed on the client from raw message bytes",
        "params": {
          "_rawMessage": "bytes _rawMessage is the raw message",
          "_signature": "bytes _signature is the operator's signature upon the hashed, prefixed message"
        },
        "returns": {
          "_0": "bool indicating if operator is the signer"
        }
      },
      "verifyOperator()": {
        "details": "verifies the operator as the original tx sender",
        "returns": {
          "_0": "bool indicating if operator is the original sender"
        }
      }
    }
  },
  "userdoc": {
    "methods": {}
  }
}